:020000040000fa
:080000000001040000000000f3
:020000040000fa
:040008005e02000094
:020000040000fa
:04000c007602000078
:020000040000fa
:04001000780900006b
:020000040000fa
:04001400680200007e
:020000040000fa
:040018008002000062
:020000040000fa
:04001c00780900005f
:020000040000fa
:04002000780900005b
:020000040000fa
:040024007809000057
:020000040000fa
:04002800a20300002f
:020000040000fa
:04002c00780900004f
:020000040000fa
:04003000780900004b
:020000040000fa
:040034007809000047
:020000040000fa
:040038007809000043
:020000040000fa
:04003c00780900003f
:020000040000fa
:04004000780900003b
:020000040000fa
:040044008a0200002c
:020000040000fa
:04004800920800001a
:020000040000fa
:04004c00780900002f
:020000040000fa
:04005000780900002b
:020000040000fa
:040054001203000093
:020000040000fa
:04005800ba020000e8
:020000040000fa
:04005c00780900001f
:020000040000fa
:04006000780900001b
:020000040000fa
:040064007809000017
:020000040000fa
:040068007809000013
:020000040000fa
:04006c00ee0300009f
:020000040000fa
:04007000780900000b
:020000040000fa
:040074007809000007
:020000040000fa
:040078007003000011
:020000040000fa
:04007c0078090000ff
:020000040000fa
:0400800078090000fb
:020000040000fa
:0400840078090000f7
:020000040000fa
:0400880078090000f3
:020000040000fa
:04008c0078090000ef
:020000040000fa
:0400900078090000eb
:020000040000fa
:0400940062080000fe
:020000040000fa
:0400980078090000e3
:020000040000fa
:04009c0080030000dd
:020000040000fa
:0400a0001a09000039
:020000040000fa
:0400a400c20800008e
:020000040000fa
:0400a80078090000d3
:020000040000fa
:0400ac0078090000cf
:020000040000fa
:0400b00078090000cb
:020000040000fa
:0400b40078090000c7
:020000040000fa
:0400b80078090000c3
:020000040000fa
:0400bc0078090000bf
:020000040000fa
:0400c00078090000bb
:020000040000fa
:0400c40078090000b7
:020000040000fa
:0400c80078090000b3
:020000040000fa
:0400cc0078090000af
:020000040000fa
:0400d00078090000ab
:020000040000fa
:0400d40078090000a7
:020000040000fa
:0400d80078090000a3
:020000040000fa
:0400dc00780900009f
:020000040000fa
:0400e000780900009b
:020000040000fa
:0400e4007809000097
:020000040000fa
:0400e8007809000093
:020000040000fa
:0400ec00780900008f
:020000040000fa
:0400f000780900008b
:020000040000fa
:0400f4007809000087
:020000040000fa
:0400f8007809000083
:020000040000fa
:0400fc00b403000049
:020000040000fa
:04010000ce0300002a
:020000040000fa
:040104007809000076
:020000040000fa
:040108007809000072
:020000040000fa
:04010c00780900006e
:020000040000fa
:04011000780900006a
:020000040000fa
:040114007809000066
:020000040000fa
:040118007809000062
:020000040000fa
:04011c00780900005e
:020000040000fa
:040120005006000085
:020000040000fa
:040124007809000056
:020000040000fa
:040128007809000052
:020000040000fa
:04012c005a03000072
:020000040000fa
:040130006209000060
:020000040000fa
:040134007809000046
:020000040000fa
:040138007809000042
:020000040000fa
:04013c00780900003e
:020000040000fa
:04014000780900003a
:020000040000fa
:040144007809000036
:020000040000fa
:040148007809000032
:020000040000fa
:04014c00780900002e
:020000040000fa
:04015000780900002a
:020000040000fa
:040154007809000026
:020000040000fa
:040158007809000022
:020000040000fa
:04015c00780900001e
:020000040000fa
:04016000780900001a
:020000040000fa
:040164007809000016
:020000040000fa
:040168007809000012
:020000040000fa
:04016c00780900000e
:020000040000fa
:04017000780900000a
:020000040000fa
:040174007809000006
:020000040000fa
:040178007809000002
:020000040000fa
:04017c0078090000fe
:020000040000fa
:040180003002000049
:020000040000fa
:0401840078090000f6
:020000040000fa
:0401880078090000f2
:020000040000fa
:04018c0078090000ee
:020000040000fa
:0401900078090000ea
:020000040000fa
:0401940078090000e6
:020000040000fa
:0401980078090000e2
:020000040000fa
:04019c0078090000de
:020000040000fa
:0401a00078090000da
:020000040000fa
:0401a40078090000d6
:020000040000fa
:0401a80078090000d2
:020000040000fa
:0401ac0078090000ce
:020000040000fa
:0401b00078090000ca
:020000040000fa
:0401b40078090000c6
:020000040000fa
:0401b80078090000c2
:020000040000fa
:0401bc0078090000be
:020000040000fa
:0401c00078090000ba
:020000040000fa
:0401c40078090000b6
:020000040000fa
:0401c80078090000b2
:020000040000fa
:0401cc0078090000ae
:020000040000fa
:0401d00078090000aa
:020000040000fa
:0401d40078090000a6
:020000040000fa
:0401d80078090000a2
:020000040000fa
:0401dc00780900009e
:020000040000fa
:0401e000780900009a
:020000040000fa
:0401e4007809000096
:020000040000fa
:0401e8007809000092
:020000040000fa
:0401ec00780900008e
:020000040000fa
:0401f000780900008a
:020000040000fa
:0401f4007809000086
:020000040000fa
:0401f8007809000082
:020000040000fa
:0401fc00780900007e
:020000040000fa
:10020000ef3823000e7f24000e018800000000005c
:10021000000020000000e000020032000001200089
:100220002002880014000700af0407000000e0006f
:1002300003003a0060d629001100200002003700b8
:100240000000200001002000810f7000010032003a
:1002500014000700000020000000e000020032004f
:10026000000002000000000042a90200010000009e
:100270000040da000000fe004440a900407e240057
:100280000000e00003003200002020009001880000
:100290004440a800000006008a1f78008b1f7800e9
:1002a00000000600a1028800800478000000eb0036
:1002b0001f003700e284440054a0b4009905ba003e
:1002c000e284440054a0b4009906ba00e2844400d9
:1002d00054a0b4000006eb00476fde00fd07b2003b
:1002e000ae018800636ce10003003a00eaff0700fa
:1002f0000000eb000e003700606ce10008003a00df
:10030000004deb000a05e800020039003420ec0043
:100310000af0a0008b05e900f9ff3e000400370059
:100320006168e100010032000086eb000b0007006d
:1003300019c7ba001905ba000e04e00003003a001c
:100340000a00e000dbff3a0000000600fe07b200f2
:10035000ae0288008a047800f5ff37000cd0a300b5
:10036000e20f4d001c00390089027800354dba00bb
:100370000a05e800020039003420ec000af0a00071
:100380008b05e9000f003200254dba000a05e80090
:10039000020039003420ec000af0a0008b05e900cf
:1003a000080032000c00e0000600320015cdba0053
:1003b0000a05e800020039003420ec000af0a00031
:1003c0008b05e9008984e80054a0b4000b00e0002c
:1003d000e2ff3a00000006009902ba00055d7800cd
:1003e0008b05e900f7ff3200c82ade00055d7800c2
:1003f0008b05e900f3ff32000c00e000f1ff320052
:1004000019ddba00eeff3700c87b040001000000d0
:10041000e47b040001000000be7e04000100000037
:10042000147f0400010000006e8004000100000041
:100430005c810400010000002e7b0400010000002c
:100440003e7b040001000000ba2d04000100000002
:10045000842f04000100000060620400010000001d
:100460003600f800809fbe00829fbe00849fbe00c1
:10047000869fbe003200f8003400f8001000200013
:10048000a001880000202000900188000000fa00f0
:1004900002d10200000000000080fa003400f900e0
:1004a0003200f9004f03be004f02be004f01be00f4
:1004b0004f00be003600f900004006003600f8008c
:1004c0008020a9000000eb00cec002000100000067
:1004d0003600f800d6c00200010000008040a900ec
:1004e00010002000cec00200010000003600f8001d
:1004f0008060a90020002000cec0020001000000a2
:100500003600f8008080a90030002000cec0020034
:10051000010000003600f800809fbe00829fbe00f0
:10052000849fbe00869fbe000000fa006cb50200ea
:1005300001000000f0df2200104078008040e80059
:10054000f0df220001487800e0df220011c0b30094
:100550000148780088e0a9000080fa004f03be003f
:100560004f02be004f01be004f00be003600f90032
:1005700000400600809fbe000000fa00216b810051
:1005800000202000008060000000e0000200320037
:100590009980a900200037008980a9001900370040
:1005a000106b8100104078000080fb00e01c880088
:1005b000106b81000000e800106b8900116b810056
:1005c00020d72200808f500002003a0060d622001f
:1005d000106b8900216b8100f0ef2f00008060001c
:1005e000206b8900116b8100006b8100808f5000af
:1005f00004003a00206b81000090a000206b89006d
:1006000005003700d11c8000002020000080600021
:100610000000e000e2ff32000080fa004f00be0060
:1006200000400600809fbe000000fa00190037005d
:10063000e06a8100f11c8000814078000148780068
:10064000e06a81000000e800e06a8900e16a810058
:10065000a0d72200808f500002003a0020d722004d
:10066000e06a8900216b8100d0ff2f0000806000cc
:10067000206b8900e16a8100f06a8100808f500060
:1006800004003a00206b81000000a000206b89006c
:1006900004003700d01c8000610060000000e00012
:1006a000e3ff3a008960a9000080fa004f00be0015
:1006b00000400600801f78000000fa00d01c800077
:1006c000620060000000e000010032009a23a900ef
:1006d0009020a9000080fa004f007800004006003a
:1006e000801f78000000fa0010c0b30090e8b70047
:1006f0008a80a9000080fa004f00780000400600c0
:100700003600f800809fbe00829fbe00849fbe001e
:10071000869fbe000000fa000000eb0020bb020034
:10072000010000008ba0a9000080fa004f03be006a
:100730004f02be004f01be004f00be003600f90060
:1007400000400600809fbe000000fa0030c4210077
:1007500011c0b300014878008800a9000080fa00a9
:100760004f00be0000400600801f78000000fa0025
:100770005cc8bf000004a2000004e00003003200d7
:10078000b04480000000e800b04488008ea0a900ba
:100790000080fa004f007800004006003600f800a4
:1007a000809fbe00829fbe00849fbe00869fbe00c9
:1007b0000000fa000e950200010000008ec0a900a2
:1007c0000080fa004f03be004f02be004f01be0082
:1007d0004f00be003600f900004006003600f80069
:1007e000809fbe00829fbe00849fbe00869fbe0089
:1007f0000000fa008a20a900f124800000082000ef
:10080000008060000000e000080032009ee4a900c3
:100810002428ef0050418000200090008000eb0071
:10082000010878002a28ef001601370020418000d7
:100830008000eb00b200200003002000820f500077
:10084000838f580004013e00006001000b00370058
:100850003a003700780037009f003700fa00370071
:10086000cd003700df003700f7003700e100370028
:10087000f90037003500370052003700c0812000f2
:1008800020009000620060000000e000fc003a00e0
:10089000c08120001000900050418800c0812000dd
:1008a000100090001040780026e8b700c0812000ba
:1008b000100090001000900040418800c08120008e
:1008c00010009000e6004000c08120001100980058
:1008d000c08120009000900000d82200808f50003e
:1008e00003003a00c0812000a1d722001100980027
:1008f000c081200020019000e1ff2f0081006100f5
:1009000021009800c081200090009000c08120004c
:1009100010007800808f500004003a00c081200051
:10092000a00090000110a000210098009a04a800e7
:100930002000200020418800d20037009a24a8001f
:100940002000200020418800ce003700f1248000e4
:1009500000002800008060000000e0000900320074
:10096000c0812000604090008040e800c0812000ed
:100970006140980040002000dead02000100000050
:10098000c0003700604180008000d100f00f2000df
:1009900000806000b0248800604180006100600039
:1009a000004078000004e00003003200b0002000a6
:1009b00020418800b300370030002000204188002b
:1009c000b0003700f12480000000280000806000a3
:1009d0000000e00009003200c0812000604090006b
:1009e0008040e800c0812000614098004000200065
:1009f000dead020001000000a20037009a24a8002a
:100a0000604180004800de00e6006000000f20002a
:100a10000100700060418800604180000000a0007b
:100a20006041880010c0b3002ee8b700200020000d
:100a300020418800930037002ec8bf00e14f5000ce
:100a40000a003200404180001000780060418800b8
:100a5000404180002000900080418800404180009b
:100a60002040900032e8b700010037002e68ef0008
:100a700061418000f00f2000808f50000900360097
:100a8000604180004800de00e6006000000f2000aa
:100a900001007000b0248800a000200020418800e0
:100aa0007800370060418000b024880060418000f9
:100ab00061006000004078000004e00003003200a4
:100ac00050002000204188006e00370030002000d8
:100ad000204188006b003700f124800000002800ce
:100ae000008060000000e0000a003200c0812000a9
:100af000604090008040e800c08120006140980084
:100b00009fe4a90050002000dead020001000000bb
:100b10005c00370032c8bf008080fb008100e90024
:100b2000cf08de00814078000040e90032e8b700dd
:100b30000104e000110032004041800066004000e6
:100b40004041880026c8bf000040e90026e8b70001
:100b500026c8bf000004e00004003a002000200086
:100b6000dead020001000000460037009a24a80014
:100b70002000200020418800420037008041800092
:100b8000904078008180fb00b12488000000e800dc
:100b9000804188003b003700f124800000002800dd
:100ba000008060000000e0000a003200c0812000e8
:100bb000604090008040e800c081200061409800c3
:100bc00040002000dead0200010000009fe4a9000b
:100bd0002c0037009a64a800800020002041880083
:100be0002800370080002000204188009a64a80077
:100bf0002400370080418000a124800081407800db
:100c0000014878000000e8008041880032c8bf0039
:100c10000040e90032e8b70032c8bf000004e0003d
:100c2000040032009aa4a90060002000204188003e
:100c3000030037009aa4a800bcad02000100000028
:100c40009a84a8000f00370020002000dead0200cb
:100c5000010000000b003700c081200060409000c0
:100c60008040e800c08120006140980060002000c2
:100c7000dead0200010000000000000001003700ae
:100c8000000000000080fa004f03be004f02be00cb
:100c90004f01be004f00be003600f90000400600c4
:100ca0003600f800809fbe00829fbe00849fbe0079
:100cb000869fbe000000fa00904680006100600040
:100cc0000000e000f70032000000eb00404f880019
:100cd000609e2000104078000004a2000004e000a4
:100ce0000300320010002000404f8800ed00370064
:100cf000c4b70200010000007145800030b18000df
:100d0000808f5000070035006145800020b18000d1
:100d1000808f50000300350020002000404f8800e5
:100d2000e0003700604580000000e00007003a0066
:100d300050458000fe0f500004003a009000200053
:100d4000404f88008fc0a900d70037006045800061
:100d5000e50f500007003a0050458000fe0f50009c
:100d600004003a00a0002000404f88008fc0a90076
:100d7000cd003700604580000000e0000a0032002e
:100d800060458000ef0f5000070032006045800092
:100d9000fe0f50000400320061458000d0022000a8
:100da000808f500008003a0051458000d00220009a
:100db000808f500004003a00b0002000404f8800af
:100dc0008fc0a900b800370060458000e40f5000d4
:100dd0000b00320060458000f30f50000800320025
:100de0006145800020022000808f50000400320006
:100df0006145800010032000808f500007003a00fa
:100e000050458000ef0f500004003a00d000200051
:100e1000404f88008fc0a900a300370060458000c4
:100e2000e20f50000b00320060458000f10f5000cf
:100e3000080032006145800000022000808f5000d1
:100e40000400320061458000f0022000808f5000d5
:100e500007003a0050458000ef0f500004003a00b0
:100e6000c0002000404f88008fc0a9008e003700ce
:100e700020672100104078000004e00033003200b9
:100e8000008a200010407800e64f500016003a001b
:100e900010672100104078008080fb00006721006f
:100ea000104078000080fb000000e900808f5000b7
:100eb00007003a0070002000404f880010672100b2
:100ec0008040eb00014878008fc0a9007600370011
:100ed00010672100104078008040e8001067210072
:100ee0000148780019003700008a2000104078007f
:100ef000e34f500015003a001067210010407800c1
:100f00008080fb0000672100104078000080fb001b
:100f10000000e900808f500007003a0080002000a8
:100f2000404f8800106721008040eb0001487800a6
:100f30008fc0a9005c0037001067210010407800c6
:100f40008040e8001067210001487800904680004a
:100f5000620060000000e000240032007145800063
:100f6000c00320000088b900800078006045800040
:100f70000081400081b28000c00320000088b900d9
:100f80008000780070b2800000804000800f510027
:100f90001200350071458000c00320000088b900b0
:100fa00080007800604580000081400011b380001f
:100fb000c00320000088b9008000780000b38000e2
:100fc00000804000800f510004003d0050002000d0
:100fd000404f88008fc0a900330037006000200018
:100fe000404f88008fc0a9002f00370000702200fa
:100ff00010407800e14f50002a003a00714580000f
:10100000c00320000088b90080007800604580009f
:101010000081400001378100c00320000088b90032
:1010200080007800f036810000804000800f510081
:101030001500350071458000c00320000088b9000c
:101040008000780060458000008140009137810079
:10105000c00320000088b90080007800803781003c
:1010600000804000800f510007003d0010388100d3
:10107000e10f50000b00320030002000404f88008c
:101080008fc0a9000800370010388100e20f50001f
:101090000400320040002000404f88008fc0a900ab
:1010a000010037008fc0a9000080fa004f03be0086
:1010b0004f02be004f01be004f00be003600f900d7
:1010c000004006003600f800809fbe00829fbe00f0
:1010d000849fbe00869fbe000000fa0036b6020064
:1010e0000100000030f82200104078008040e80045
:1010f00030f822000148780020f8220011c0b30027
:10110000014878008b60a9000080fa004f03be0000
:101110004f02be004f01be004f00be003600f90076
:10112000004006003600f800809fbe00829fbe008f
:10113000849fbe00869fbe000000fa00aab5020090
:101140000100000050f82200104078008040e800c4
:1011500050f822000148780040f8220011c0b30086
:10116000014878008900a9000080fa004f03be0002
:101170004f02be004f01be004f00be003600f90016
:1011800000400600809fbe000000fa001169810047
:1011900000202000008060000000e000020032001b
:1011a0009be0a900200037008be0a9001900370060
:1011b00000698100104078000080fb00901d8800cd
:1011c000006981000000e800006989000169810070
:1011d00000d32200808f500002003a0040d222004b
:1011e0000069890011698100f0ef2f000080600024
:1011f0001069890001698100f0688100808f5000ca
:1012000004003a00106981000090a0001069890074
:1012100005003700811d8000002020000080600054
:101220000000e000e2ff32000080fa004f00be0044
:1012300000400600809fbe000000fa001900370041
:10124000d0688100a11d80008140780001487800ad
:10125000d06881000000e800d0688900d168810072
:10126000c0d32200808f500002003a0000d3220039
:10127000d068890011698100d0ff2f0000806000d4
:1012800010698900d1688100e0688100808f50007a
:1012900004003a00106981000000a0001069890074
:1012a00004003700801d8000610060000000e00045
:1012b000e3ff3a008bc0a9000080fa004f00be0097
:1012c00000400600801f78000000fa00801d8000aa
:1012d000620060000000e00001003200b023a900bd
:1012e0009040a9000080fa004f00780000400600fe
:1012f0000040da000000fe001004b10007003500d5
:101300009001b100040034007000b100030035000a
:101310009001b10001003c00100005000000050034
:101320006900e100040035006d00e10003003400b5
:101330000002b100010032000000050010000500ad
:10134000800078001106b100030035009101b10062
:1013500001003c000050a100000006000a00fa0055
:10136000e20f500034003e00507c8100e10f50003d
:1013700003003200e20f500011003a000c00370069
:10138000833920000300e00001003a000040da0049
:101390009803e20002003500a023ef0099e3a800c3
:1013a0009b43ab000d003a009b43a8000b003700a5
:1013b000e33a20000300e00001003a000040da00b8
:1013c000ae03e20002003500b623ef00afe3a80051
:1013d000b143ab0001003a00b143a800820178009c
:1013e0000b0037003102fb00e10f500004003a000f
:1013f0009b23ab00feff3a00e41c8800030037008b
:10140000b123ab00feff3a00941d88008301e90080
:101410000300e000f3ff3a00e10f500003003a0040
:101420009b03ab00feff32000b003700b103ab00a3
:10143000feff32000800370033002000b3bf9f00da
:10144000c0bf9f00d1bf9f00e2bf9f006a805700ce
:10145000140b07006fb99700020078000080fa00b3
:1014600000000600889fbe0080047800607c810038
:101470000000e00004003a000e0007000084eb00ca
:101480000000e00008003500687c81000900e000f1
:101490000500320009004400060007000000e000db
:1014a00001003d000084eb00080078004f04be00fe
:1014b00000000600800078000100e00003003a0010
:1014c000e0f82200607c8900000005000080eb004d
:1014d000e2382300828f500002003e00617c8900c8
:1014e0000000eb00000006000000050003f0a20071
:1014f000889fbe008a9fbe008c1f7800fe000700f8
:10150000050133006450e1004f0032006420e10027
:101510005200320003826c0007003b000905d00036
:101520000306d000820f54000c065d000200390053
:101530000200320089017800030678008582550098
:1015400004003d000003fd008103fd008502ea0068
:101550008b854200840f720002003b006000100087
:10156000e08018006011b8000005eb007a28e10067
:101570000a00390006007800c75ddd00f707b200f9
:10158000878075002d003700828171000a01780084
:10159000610560008180d1000080d3008502e900f0
:1015a000f9ff3b00060440008784480002003b002e
:1015b00060041400e0841c000988a30007003200c6
:1015c0008a81710082817100610164008904d10007
:1015d0000884d3008b05e800170037000978a300c2
:1015e00013003a000b00e000130034008b05e90003
:1015f0000804440089844c000a4474000978a3005c
:101600000d003a000b00e000070034008b05e900f4
:101610000804440089844c0001003a000b002000bb
:101620000978a300f7ff32000001eb000200370049
:10163000828171000a017800740007000cf0a70095
:1016400001f0a000bd0037006420e10002003a0074
:10165000838f6c00bd0033000801be000200be0095
:10166000b6003700889fbe008a9fbe008c1f78009e
:10167000a1000700a800330003866c006450e1005d
:101680002e0032006420e100330032006150e1009e
:101690002f0032006120e1003100320085855500c5
:1016a000eb07b00009002000080420000500370007
:1016b0000804440089844c000a00310006034300fa
:1016c00087834b000001530081815b00f8ff3300ea
:1016d0000203be000800a0000804440089844c00f6
:1016e000f6ff3900c639dd008301730001003200c6
:1016f000130020008904d1000884d3000998a300b6
:10170000050032000800a7000300a0008904d100f2
:101710000884d3008b05e8008904d1000884d30035
:101720000001eb000281d2003800070001f0a100a7
:101730000cf0a70001f0a000800037006420e10059
:10174000820032000801be000200be00f7ff370031
:101750006120e1007d0032006000b800f3ff370037
:101760000000200001f82700f0ff370014002000df
:10177000bd0037000001be004a0007000470a7004a
:1017800003f0a1006509b100160032000d0035001c
:101790006828e10006003500f0ff2f00f1ff270068
:1017a0000300e00013003b000100280000000500da
:1017b00000004000818048008502e900fcff3a00fb
:1017c00008003700f88f420002003c008000eb0068
:1017d000000005008100d1000080d3008502e800f0
:1017e000fcff3a000300e00002003b006000100034
:1017f000e0801800000006004f89de0082017800ba
:10180000b40037006011b800c2003700810020002a
:10181000618055000b003d000b00200061fe2f0091
:101820000100e1001d00340082817100610164004b
:101830008904d1000884d3000000e800faff3a00d0
:10184000710020006100640003007000020060006d
:101850000900320061044400e0844c000988a500be
:10186000050032008b05e8006808e10002003a003c
:101870008904d1000884d300f20f20000258e1004f
:1018800005003d00c75ddd00f907b20089807500e5
:1018900008007800000006000bf827008b00780095
:1018a00000000500c70ade00f107b200f50fb20024
:1018b00008003200e1cf4200020032000170a000b7
:1018c00024000500810f70000100320004080500ab
:1018d00044000500810f700002003a00140005006a
:1018e0008502e9000000400081c04800fcff3b0089
:1018f0000170a000240005000004be00e9ff0700fd
:101900000003be000405be000200be00e5ff0700a4
:10191000844f7500000006000200be006450e10024
:10192000050036006420e100020036000968a300cb
:1019300001003a000800be000160a0004f067800d8
:101940004f05be004f04be0000000600f0ff2f0050
:10195000f1ff2700f9ff3700889fbe008a9fbe0075
:101960008c1f7800e4ff0700ebff330003866c0058
:101970006450e100240032006420e10027003200be
:101980006150e100220032006120e10021003200bc
:101990008b854200eb07b1000134b800003ab80073
:1019a0000804420089844a00013ab8000030b800b7
:1019b0008880400009014a00040033000000400014
:1019c00081804800020149008b05e900c909dd005a
:1019d000830170000100320013002000c814de00f3
:1019e0004814dd004709de001200b200c808de001e
:1019f0000884700085ff070001f0a1000cf0a7002b
:101a000001f0a000cdff37006120e100cfff3200e0
:101a10000801be000200be00f7ff37006150e10080
:101a2000fcff3a00c9ff37006022b8000602200020
:101a30000000d0008180d2000482d2008582d200d2
:101a40000000a0000202520083825a00030031000d
:101a50000202420083824a000000a1000603e9005e
:101a6000f3ff3a0000000600889fbe008a9fbe0078
:101a7000841f7800a0ff07004f007800110033009a
:101a8000f0ff2f00838f6c0006003b00040565000b
:101a90000a00a7000800370009f0a6001000200087
:101aa00008003700820f5400838f5c000300390068
:101ab0001000200001003e000000200009f0a700f7
:101ac0000000ea004f05be004f04be000000e00029
:101ad00000000600881f7800030478000300e0007f
:101ae00007003d0060001000e08018006001190050
:101af000e081190002003b0001f02d0003003700d7
:101b00000400070008f0a70001f0a0004f047800cf
:101b100000000600889fbe008a9fbe000082700001
:101b20000402710004827100260032000004be002d
:101b30000200be006011b8006b0920009502200071
:101b40000182cf000a0039000541b1000082cf00b8
:101b5000070039000541b1000982cf0004003900b7
:101b60000541b1000882cf00010039000541b100f4
:101b700005425200120032000a003b0082817100cf
:101b8000610164008100d1000080d3008984d3000a
:101b90000884d3008b05e8000442e800f7ff3a0010
:101ba000070037000804440089844c000000480006
:101bb000818048008b05e9000442e900f9ff3a0002
:101bc00012ff07004f05be004f04be0000000600d4
:101bd0000000fa00e88157004fb99700fa0b0700a0
:101be0000080fa00000006000c00fa00889fbe008a
:101bf00000047800f0ff2700d0bf9f008004eb00b6
:101c000099bf9f0088bf9f00a8bf9f00200c2000a5
:101c1000b0bf9f0078815700cfb097007080570009
:101c2000cf0007000fb89700094878008fb89700d9
:101c3000088050004f04be000080fa00000006003b
:101c40000800fa00889fbe008a9fbe000084fb0047
:101c5000d1c6b300814f5000340036004b0620003f
:101c6000110009000b84d800810578007200400043
:101c70004300dd0089bb2200008044006022b800e0
:101c80000600200007fe23005001be004000be00f9
:101c9000b10a07000002be000203be0084bf9f001d
:101ca00095bf9f00a6bf9f00b7bf9f00aa0020005e
:101cb000110009008a85d80080057800e985450073
:101cc000c35ddd008b8544003b02be002b03be00dc
:101cd0000fb897009fb897002fb99700bfb997002a
:101ce0009d0a07000002be000203be0084bf9f00e1
:101cf00095bf9f00a6bf9f00b7bf9f0011000900be
:101d00000a84d800010478004344dd00888444003c
:101d10003902be002903be000fb897009fb8970094
:101d20002fb99700bfb997001d003700ea4f500048
:101d300013003600aa002000110009000a84d80010
:101d400001057800690440004344dd0089bb22009e
:101d5000088444006022b8000600200007fe23002b
:101d60003800be002801be007b0a07004355dd0095
:101d70008a8444003902be002903be0008003700ef
:101d80004344dd0080bb2200080440006022b8000c
:101d90000600200007fe23003800be002801be0018
:101da0006d0a07004f05be004f04be000080fa0018
:101db000000006000800fa00889fbe008a9fbe004f
:101dc000d1c6b3000004e00023003d000040ea005b
:101dd0000004fb00814f50000a003400420620003e
:101de000110009000204d800a90020001100090018
:101df0008900d800e9004000c308dd008abb22004a
:101e000021003700ea4f500010003400a2002000eb
:101e1000110009000204d8000101780069004000a7
:101e20004300dd0081bb2200008040004311dd0043
:101e3000828040003102be002103be005001be007e
:101e40004000be00440a0700380037004344dd006c
:101e500080bb2200320037000004fb00814f50009d
:101e60002300340042062000110009000204d800bb
:101e7000a9002000110009008900d800e9004000f5
:101e8000c308dd008ab02200810045003102be0097
:101e90002103be008b0920008a8545003b00be005f
:101ea0002b01be002c0a07000002be000203be0088
:101eb00084bf9f0095bf9f00a6bf9f00b7bf9f0034
:101ec000110009000904d800010478004344dd0032
:101ed000080545003a02be002a03be000fb897006d
:101ee0009fb897002fb99700bfb99700d5ff37006b
:101ef000ea4f500008003400a20020001100090041
:101f00000204d80001017800690040004300dd00b0
:101f100081b02200c4ff37004344dd0080b02200be
:101f2000080440003800be002801be004f05be0076
:101f30004f04be000080fa0000000600d0019000af
:101f4000028151004240a9000300340010017800d2
:101f5000014978000208e80001007800000006004e
:101f60006f02b000889fbe008a9fbe008c9fbe009b
:101f70008e1f780000067800b1af9f0092b79f00d7
:101f80006000b8006011b800d0af9f00e1af9f00c3
:101f9000f2af9f0083b79f008006eb00c5043700b7
:101fa000bfa897008100e800b1af9f0051c2b30005
:101fb000814f500003003a00bfa897000007eb00d4
:101fc00011003700bc0090000000fb000168a30076
:101fd000070032000d017800800078000c007800c6
:101fe000d6ff07000000e00005003a00b10437000a
:101ff0008c007800e7040700e10f4000ad043200d8
:102000008d06e800ab04370001017800314078000c
:10201000d3c2b300834f50000c00320007003c00d5
:10202000edc15100834f50000a003200ebc1410066
:10203000834f50000d003a000800370003c3b3007f
:10204000834f500009003a00060037000e30a00010
:10205000edff37000e00a000ebff37000e10a000d0
:10206000e9ff37000e20a000e7ff37000e18a3009d
:10207000010032000e00a1000e38a3000100320062
:102080000e20a1008000fb000103b100e98f500089
:102090000c003e00020078008005eb006a59b90090
:1020a000b005fb000b03b1008285450000017800fc
:1020b0009000fb000103b100e98f5000f7ff3600ec
:1020c000080037008005eb00a1c2b300814f50002b
:1020d00004003a009fb19700c305780093b79f00b2
:1020e0000201e800e0c2b300924f100016003a006f
:1020f0000ee0a00064405000d24f100003003200f8
:10210000020078008001eb00080037009fb29700c2
:102110004503780095b79f00e6b79f000201e800ed
:102120000c0037006a19b900828140000001780074
:10213000b000fb000103b100e98f5000f9ff360049
:10214000e3b79f00030037000ec0a0008003eb0040
:10215000e7b79f00820178003340780003017800e0
:10216000c1c6b300814f50002b003200b3af9f00b7
:1021700014003c00e8c05000814f500024003200a1
:1021800009003c00ecc05000814f50002a00320092
:10219000ebc04000814f50008c0032000004e00092
:1021a00049043200a200370061c6b300814f5000dd
:1021b0001b003200e3c04000814f50009c003a00f9
:1021c0001300370031c7b300814f50001e003200aa
:1021d00007003c00e4c05000814f50001300320063
:1021e0008140e800814f500091003a001200370012
:1021f00051c7b300814f500092003200e3c040004d
:10220000814f50008a003a00e0cf9f000c00370059
:10221000e0cf9f008d0037000e40a000cdff3700bb
:10222000e0cf9f000ea0a00088003700e0cf9f0005
:102230000e60a00085003700e0cf9f000e50a00088
:102240000e70a00081003700e0cf9f009fb0970084
:102250004100780091b79f00000478000000e00082
:1022600001003a00a8c82200880078000000eb00b6
:10227000010037000000e800614178000204e0003e
:10228000fcff3a00800478006fb197000200e00084
:1022900003003200890f51000100310082047800f0
:1022a0000005eb00898f55000100360009855500b7
:1022b000680767002a003a00110037003c009000d0
:1022c0000068a300070032000d0178000102200021
:1022d0000c00780019ff07000000e00006003a003b
:1022e000060037008c007800000220002904070057
:1022f000e10f4000010032008d06e8000a05e90008
:102300000a00e000edff3a000085eb001400370002
:102310003c0090000068a30009003200080078002b
:10232000b000fb00000478000d0178000c0078007c
:1023300002ff07000000e00008003a000800370034
:10234000880078003100fb00010478008c007800e0
:1023500010040700e10f4000010032008d06e80084
:10236000090078008004e9000000e000e8ff3a007e
:102370000e00e000cf033200110037003c00900057
:102380000068a300070032000d0178000102200060
:102390000c007800e9fe07000000e00006003a00ab
:1023a000060037008c00780000022000f9030700c7
:1023b000e10f4000010032008d06e8000a05e90047
:1023c0000a00e000edff3a00ba0337009fb1970022
:1023d0004302780093b79f00cfa2de00482bdd00b8
:1023e0004820de0000007300c828de00e0cf9f0018
:1023f0000e48a300080032000004e000060032008e
:10240000e14f400004003200f0cf9f0084d79f00ce
:102410002900200002003700f4cf9f00190020009f
:10242000e7fc2f008f8343000704e80096ff370086
:10243000e0cf9f00e8fc2f000f04440019002000ab
:1024400091ff3700e0cf9f000e0cb3000170200019
:1024500081006700700067000100e000190232008f
:102460000ec8a3000200320061002000e1b79f0007
:102470000000e000060032001fb097006800500026
:102480003002be002003be0090b79f000600370058
:102490001fb197004200be0092b79f0030080700ae
:1024a0000002be000203be00a4b79f00b5b79f00a4
:1024b000c6b79f00d7b79f006022b8006033b8004e
:1024c0002fb09700bfb097004fb19700dfb19700d2
:1024d000750707000000e0000a003d002fb09700dc
:1024e000bfb097004fb19700dfb1970003f0a20093
:1024f000a0b79f00b1b79f00c2b79f00d3b79f009e
:102500003e00b3000000eb0090af9f006022b800d7
:102510006033b8002fb09700bfb097004fb197005d
:10252000dfb19700c40707000000e000340032006c
:1025300024fd2f000f0242002fb09700bfb097007c
:102540004fb19700dfb19700570807001fa8970009
:102550000000e9006302b900a20020001100090098
:102560000202d80090af9f000000e00002003d0092
:102570000000e90090af9f001fac97000840ea0000
:102580000cfe07002fb29700bfb297004fb3970021
:10259000dfb39700700807000002be000203be0010
:1025a000d4af9f00e5af9f00f6af9f0087b79f00b5
:1025b0006022b8000600200007ff23003a0707004a
:1025c0000000e00002003d000804e9000b003700b5
:1025d0006022b80006002000470224005fa8970090
:1025e000efa897007fa997008fb1970033070700e6
:1025f0000000e000020035000804e80098af9f00ea
:10260000efb29700ec8f52000f003c0005407800bd
:102610008bfd07000002be000203be002fb0970032
:10262000bfb097004fb19700dfb19700a006070039
:102630000002be000203be00a4b79f00b5b79f0012
:10264000c6b79f00d7b79f001fac9700e90f540093
:1026500015003c006022b8006033b8002fb097002e
:10266000bfb097004fb19700dfb197007207070026
:102670000000e000310032002fb09700bfb097009b
:102680004fb19700dfb19700d4070700e00f50006b
:10269000e08f5800e00f5900e08f590027003a0002
:1026a000e10f5400250034000400200005002e0036
:1026b000b6e02200170124005fa89700efa897005a
:1026c0007fa997008fb19700f70607000000e00090
:1026d00002003d0069045400010037006804540002
:1026e00098af9f002fd09700b2fd07000002be00f8
:1026f0000203be00d4af9f00e5af9f00f6af9f007e
:1027000087b79f002fb09700bfb097004fb19700d9
:10271000dfb19700ee060700b00707000004be0017
:102720006000b8006011b800a0b79f00b1b79f006b
:10273000c2b79f00d3b79f00160037002fb0970095
:10274000bfb097004fb19700dfb19700a307070014
:102750000004be00d20707000002be000203be0054
:102760002fb09700bfb097004fb19700dfb197002f
:102770006f0807000002be000203be00a4b79f005e
:10278000b5b79f00c6b79f00d7b79f000000eb000a
:1027900090af9f0021c9220010c0b3000500370090
:1027a000e4804000b10f5400a18f5c0003003900a9
:1027b0000040e800ea4f5000f9ff3a00e0cf9f00e8
:1027c0009fa8970081805500efb297008580500048
:1027d0000005fb000a8550000500e0000100320002
:1027e0000a05e90063006700010032000a05e900fc
:1027f0000e28a30039003200610167000e18a30003
:102800000f0032003c0090000068a3000600320078
:10281000b10220000200e000010032008180e800e7
:102820000d0178000d003700b00220000200e0002a
:10283000010032000080e8008c0078000e003700b4
:102840000200e000220032003c0090000068a3007b
:10285000070032000d017800010220000c00780012
:10286000b6fd07000000e00006003a00180037003f
:102870008c00780000022000c6020700e10f400033
:10288000130032008d06e800110037003c00900074
:102890000068a300070032000d017800010320004a
:1028a0000c007800a5fd07000000e00006003a00db
:1028b000060037008c00780000032000b5020700f6
:1028c000e10f4000010032008d06e8000a05e90032
:1028d0000a00e000edff3c00570037000e38a3006f
:1028e00014003a00110037003c0090000068a3007b
:1028f000070032000d017800010220000c00780072
:102900008efd07000000e00006003a0006003700d8
:102910008c007800000220009e020700e10f4000ba
:10292000010032008d06e8000a05e9000a00e00017
:10293000edff3c00610167000e18a3000e0032009d
:102940003c0090000068a30005003200b1022000a6
:102950000200e000220032008180e8002000370001
:10296000b00220000200e000010032000080e80018
:102970008c0078002c0037000200e0002e003200ae
:102980003c0090000068a300030032000d017800b5
:1029900001022000130037008c00780000022000a4
:1029a000210037003c01900020c922008100fb007b
:1029b0000268a30010003200c208dd008100400060
:1029c0001101be000800be0017fc0700a200200095
:1029d00003002000d807070001032000808040008a
:1029e0000d0178000c00780054fd07000000e000a5
:1029f00010003a0010003700c208dd0081004000de
:102a00001101be000800be0007fc0700a200200064
:102a100003002000c8070700020320000001410056
:102a20008c007800020078005a020700e10f400095
:102a3000010032008d06e8006fc897008040e90071
:102a4000e1cf9f000004e000d6ff3a0013003700fa
:102a50003c0090000068a300070032000d017800e0
:102a6000010320000c00780034fd07000000e000a6
:102a700006003a00060037008c00780000032000b2
:102a800044020700e10f4000010032008d06e8001b
:102a90001fa897000000e90090af9f001fa89700b3
:102aa0000000e000eaff3c006fb39700e80f53001e
:102ab0000300340080c0b300e0cf9f000200370065
:102ac000cfeb9700e7cf9f006fc897008005fb0012
:102ad000efb097008b8550000004e000100032003a
:102ae0003c0090000068a300070032000d01780050
:102af000e10220000c00780010fd07000000e0005b
:102b000006003a00060037008c007800e002200042
:102b100020020700e10f4000010032008d06e800ae
:102b20006fc89700a3fc07000002be000203be00ae
:102b30002fb09700bfb097004fb19700dfb197005b
:102b400005070700a50607002d0037003c0190008f
:102b500021c922000000fb000268a300100032001f
:102b60004200dd00808040001101be000800be0070
:102b7000adfb0700a2002000030020006e07070045
:102b800001032000808040000d0178000c007800d7
:102b9000eafc07000000e00010003a0010003700d7
:102ba0004200dd00808040001101be000800be0030
:102bb0009dfb0700a2002000030020005e07070025
:102bc00002032000000141008c0078000200780020
:102bd000f0010700e10f4000010032008d06e8001f
:102be0006fc997000200fb004200dd0021c92200ee
:102bf000008040001001be000800be004e07070024
:102c00000004be00efc897000140e900e0cf9f003c
:102c10000104e000cdff3a00110037003c009000b5
:102c20000068a300070032000d01780001032000b6
:102c30000c007800c1fc07000000e00006003a002c
:102c4000060037008c00780000032000d101070047
:102c5000e10f4000010032008d06e8008b05e9001d
:102c60000b00e000edff3a000e38a30091013200a6
:102c70000a00e0008f0134003c0090000068a300cf
:102c8000070032000d017800010220000c007800de
:102c9000aafc07000000e00006003a00060037002a
:102ca0008c00780000022000ba010700e10f40000c
:102cb000010032008d06e8000a05e900eeff3a0047
:102cc0007c0137008e007800010cb20011003a0040
:102cd0000000e000040032009fb197004304be00f2
:102ce00093b79f00040037001fb297004404780098
:102cf00094b79f00cfc4de00e00f5400e08f5c006b
:102d00000e003d003e00b30060041400e0841c008f
:102d10000a0037000000e000040032009fb2970074
:102d20004504be0095b79f00040037001fb397000d
:102d30004604780096b79f008004eb00efb397003d
:102d40000700e00006003a000880740000f0a700c9
:102d50000000ea000000e9004f00de00e0b79f003d
:102d60000e007800000cb200c0af9f0000042000ed
:102d7000cfa89700808f50002300320003003c0052
:102d80000100e000080032002d003700000820009c
:102d90004fa99700800f51000d003200000c200059
:102da000800f510026003a0021c9220010c0b30054
:102db000e4804000b10f5400a18f5c001f00390077
:102dc0000040e800ea4f5000f9ff3a001b003700ce
:102dd00010c0b3000201200003002000820f540045
:102de000838f5c0015003900441add00cc11de0031
:102df000830172004411dd000040e800e84f5000fc
:102e0000f6ff3a000d00370010c0b300820020002a
:102e100003002000820f5400838f5c0007003900fc
:102e2000c31add00cd11de00838172004311dd0085
:102e30000040e800eb4f5000f6ff3a00e0cf9f0063
:102e40006fcb97000600fb00efb39700870f500091
:102e500002003d00e7cf9f0004003700efb097006d
:102e6000808f500001003d00e0b79f000b00e000a4
:102e70000300320063006700010032008b05e900a7
:102e80000ee8a300060032006fb19700828f550054
:102e90000200340082855500010037008005eb00f8
:102ea000efc997000300fb000002eb00a4b79f00ee
:102eb000808f55000200340000805500a0b79f00ad
:102ec0000e28a3003c003200610167000e18a30029
:102ed0000f0032003c0090000068a30006003200a2
:102ee000b10220000200e000010032008180e80011
:102ef0000d0178000d003700b00220000200e00054
:102f0000010032000080e8008c0078000e003700dd
:102f10000200e000100032003c0090000068a300b6
:102f2000070032000d017800010220000c0078003b
:102f300002fc07000000e00006003a00060037002f
:102f40008c0078000002200012010700e10f400011
:102f5000010032008d06e800afb297000500e000e6
:102f600052003200050578003c0090000068a30084
:102f7000070032000d017800010320000c007800ea
:102f8000eefb07000000e00006003a0006003700f4
:102f90008c00780000032000fe000700e10f4000d5
:102fa000010032008d06e8000a05e900eeff3a0054
:102fb000aab79f003d0037002fb397000600e0003e
:102fc000160032000e38a30014003a0006057800ff
:102fd0003c0090000068a300070032000d0178005b
:102fe000010220000c007800d4fb07000000e00084
:102ff00006003a00060037008c007800000220002e
:10300000e4000700e10f4000010032008d06e800f7
:103010000a05e900eeff3a00aab79f0061016700c8
:103020000e18a3000f0032003c0090000068a300bf
:1030300006003200b10220000200e0000100320070
:103040008180e8000d0178000d003700b0022000fb
:103050000200e000010032000080e8008c007800ef
:103060000e0037000200e000100032003c0090002b
:103070000068a300070032000d0178000102200063
:103080000c007800adfb07000000e00006003a00ed
:10309000060037008c00780000022000bd00070009
:1030a000e10f4000010032008d06e800efb3970009
:1030b0000702e9006320b90000017800a2af9f0079
:1030c0004222dd0020c922000002420004057800ef
:1030d000cfad97005c003700efb197008301e900a6
:1030e000e3b79f0000042000808f550037003200b6
:1030f00003003c000b00e000070032003d003700f9
:1031000000082000808f550020003200000c2000b5
:10311000808f550037003a000e48a300100032009f
:103120001a02be000401be000800be00f4b79f00f2
:1031300085bf9f003cfa0700e0cf9f000000fb0026
:10314000cf80de007fb297008fba97000401be00e7
:10315000fc0507000004540081845c000700370070
:103160001a017800110009000284d800a200200092
:10317000110009000280d800e1cf9f006fca9700bc
:103180000443b000e4cf9f001a00370090c722002c
:103190000e58a3000100320080c6220021c922007f
:1031a000810055000801be008100e90003003300e2
:1031b0008301d1000281d300fbff37006f01610062
:1031c00060417900e2cf9f000a0037000800be008e
:1031d000afaa97008502e900030033008100d10007
:1031e0000080d300fbff3700674060000043b00061
:1031f000e0cf9f00bc0090006fcb97000600fb0063
:103200000168a300070032000d01780080007800fb
:103210000c00780049fb07000000e00005003a00c0
:10322000050037008c0078005a000700e10f4000cd
:10323000010032008d06e800afab9700e383530036
:10324000a7af9f00640555006fb097000000e00035
:10325000a1ff3a000e38a30016003200afb097006d
:103260000100e00013003400010578003c009000ec
:103270000068a300070032000d0178000102200061
:103280000c0078002dfb07000000e00006003a006b
:10329000060037008c007800000220003d00070087
:1032a000e10f4000010032008d06e8000a05e90048
:1032b000eeff3a003fa9970012407800e0cf9f0050
:1032c0000004e00036fb3a000d0078004f0778005c
:1032d0004f06be004f05be004f04be006f02b10096
:1032e000000006000000fa0068815700cfb8970080
:1032f00000d022001afb07000080fa000000060040
:103300000000fa00e88157004fb997002e06070029
:103310000080fa00000006008000780001007800bc
:103320003041780003c2b300834f5100faff3200ee
:10333000e94f5100f8ff3200edc14100834f5100c9
:1033400003003a008000780013c0b3000500370086
:103350008041eb00b4c2b300844f510001003a0039
:10336000800078000000eb00020037006a02b9001c
:10337000040041003101fb000203b100e90f5100dc
:10338000faff36000304e000010032000000ea000a
:1033900000000600889fbe0001047800b80090007d
:1033a0008084eb000118a3003a003200180190005d
:1033b0000198a30002003a000200e00035003a0044
:1033c0000190a0003104980080047800f90fb20049
:1033d0000200e00002003a0028009000000c780093
:1033e000ea8f540005003a000178a30003003a0078
:1033f00088007800d0002000e6ff07001800900049
:10340000d8009000810f50000b0032000000e8004f
:10341000100498001800780009487800000ce800b3
:1034200011c0b300c0f7220001487800ea8f5400b1
:1034300018003a000500370088007800094078003d
:10344000d90207008004780012003700380090008d
:103450000088a3000f00320018019000a80090001f
:1034600048009000bdf7070098009000810f5000c1
:1034700004003200380090000003b30030049800cc
:103480008084eb000000eb001004980028009000fe
:10349000000c7800090078004f04be000000060010
:1034a000889fbe008a9fbe008c9fbe0061f62200ee
:1034b000327b81000200e0000b003a006481400092
:1034c000327b8900827b8900a1009800717b890092
:1034d000214190000204a000a240980061419000a8
:1034e0000204a000e2409800670440004244de006d
:1034f0004244dd00747b8100e1f82200e9382300ba
:10350000818454002d002000110009008d04d80092
:10351000800678000886e8000c0646008001eb0073
:1035200002003700130020000b027800a440900036
:103530000108a300020032000a003700120a7800d6
:1035400014017800a24090000108a300fbff3200a4
:1035500088004200810f5100020039000800e0009d
:1035600042003d00940578000b00a100848f5500b7
:10357000edff3e00e18f5100eaff3a008d0f54004d
:1035800002003600890f5400140039006141b80070
:103590006148b900b4ff2f00050020000000520070
:1035a00081805a00800f5100818f59000200350040
:1035b000640544000a003700e0f822001a392300ad
:1035c0000005550008054500110009000985d800cf
:1035d0000980b90000057800010037000c0578006b
:1035e0000a0078009ff70700e10f400005003a004d
:1035f000640544000a0078009af70700e10f4000d4
:103600002b003200817b810080087800817b810063
:10361000e481400021419000830f500002003200fd
:103620000204a000010037000204a100a24098009b
:10363000640555000a0540000a0878008a7b890065
:1036400061f62200010d7800827b8100a24090008b
:103650000104a00021419800a04090000104a100b5
:10366000214098008001eb00afff3700717b89009b
:10367000810f5100070036001101be00927b8900c6
:10368000a37b8900940878000041eb00717b8100e6
:10369000a2409800737b8100030a7800a440900048
:1036a0000104a0002142980064004200010037009c
:1036b0000000eb004f06be004f05be004f04be00e9
:1036c000000006000000e000080032006400500026
:1036d000717b8100810f500001003100707b8900f7
:1036e000a04090000104a1002140980000000600c5
:1036f000889fbe008a9fbe000004be000900e00053
:1037000007003a000000eb000800e000360032003d
:1037100008007800ebff07000000eb0032003700e4
:103720000800e00003003a00090078005cff070091
:103730002d003700640054009005780068f8970069
:103740000008a3000200320008007800ddff070037
:103750000900780052ff0700800478000000eb00a9
:103760000900e00020003200888f54001b00320066
:1037700069bd97000905550042d5de0088855500d2
:10378000c2ddde000a0178008b0f55000100360013
:103790000b0178004211dd008800780009007800f4
:1037a0002d000700888f54000e0031004255dd00c7
:1037b0000a854400880f55000a00360008045500a9
:1037c00042c4de004244dd0008844400907b810056
:1037d000a17b8100008cbe00020037000800780049
:1037e00001003700090078004f05be004f04be00fd
:1037f00000000600e68747008e1f7800d0bf9f00bc
:10380000e1bf9f000e0037005fba970014407800b8
:10381000efb99700934078000201e900814f500012
:10382000040032000080fb008180fb00010050009a
:103830000600370066875700041fe800030fe80002
:103840000200e000f0ff3a000000eb004f077800b4
:103850006f00b10000000600800178000200370010
:10386000b15978000201e9000200e000fcff3a00d3
:1038700000000600800178000200370081597800be
:103880000201e9000200e000fcff3a00000006002f
:103890008001780002192000110009008281d800ff
:1038a0008000fd0000017800110020000200e0000f
:1038b0000a003200638161008000eb0007003a00db
:1038c00042062000110009008281d80001f0a70003
:1038d0008100ea008100ea00cf08de0001007800e4
:1038e0000000060011bf20000180b90012442f0023
:1038f0000000410042062000110009000280d800ab
:1039000000000600881f7800000478004242de00b4
:1039100003192000110009000384d8000001780079
:103920008001eb0002014200e0814900d616200030
:103930000643b8000202430083824b004206200087
:10394000110009000284d8008000fd00010052002f
:10395000e0805a004f04780000000600889fbe00f7
:103960008a9fbe000004be00020578000900e8003e
:10397000dcff07000a0540008005eb00e18f5400e2
:103980000a00360008007800c1ff0700220020006e
:10399000030020000000e0000200320012002000be
:1039a000030020000205550083855d000800e90042
:1039b000d4ff07000000450081804d004f05be0088
:1039c0004f04be0000000600889fbe008a9fbe0014
:1039d0008c9fbe0000047800d8049000a3fb2f0049
:1039e000898141000080eb008080eb00e210200024
:1039f000828f510032003e00c076200000804400db
:103a000038019000c8009000d4ff07000006be00f7
:103a1000120020008000eb00207b2000cfff070079
:103a20000005560081855e00720020000300200022
:103a30000a00be003903070064004000e08048002f
:103a40007200200003002000340307006004980087
:103a5000b076200000804400aaff07000c06e900b1
:103a6000000656007c04980082012000030020001c
:103a70000a00be00b303070028019000cf91de00ca
:103a80000000410081804900c203200003002000a3
:103a9000ac03070018019000cf91de000000410048
:103aa00081804900c203200003002000a503070015
:103ab00018017800cf91de000000410081804900ac
:103ac0004f06be004f05be004f04be0000000600ba
:103ad000889fbe000004be00050037000000fb0008
:103ae000890078002bfe0700e10f4000040032003f
:103af000384078000004e000f8ff3a000000eb00d6
:103b00004f04be0000000600881f780001d022008c
:103b1000efff07000004780001d02200a000200081
:103b20001cfe0700080078004f0478000000060023
:103b30008000eb00c07b8900d17b890011c0b300fd
:103b400060f72200014878000000060060f72200bc
:103b50001004e00002003a0010002000f4ff07000b
:103b6000d2e62400631c2400c07b8100d17b81004d
:103b700074030700920323000300200000014100aa
:103b800081814900c27b8900d37b890003007800d2
:103b900000f0a1000000060000017800820178001a
:103ba000030178003204e000fcff3a003141780064
:103bb000825978000204e000fcff3a000000060091
:103bc0000001780002007800b041780081cf5100f8
:103bd000030032000304e000f9ff3a000001eb00ab
:103be0000200780000000600b041780031c15100a9
:103bf00002003a000304e000fbff3a000200fb0071
:103c00000000060000017800b141780003597800f7
:103c10000304e000fcff3a0000000600800078008a
:103c20003104e000feff3a000080ea00008040001e
:103c30000000060080017800060037000201e9005c
:103c4000b142780085597800030278000504e0004d
:103c500006003200030278000200e000f7ff3a009d
:103c600002003700005aeb000201e9000200e00008
:103c7000fcff3a0000000600e6874700889fbe0070
:103c80008a9fbe008c9fbe008e1f78008106780040
:103c9000820478008000eb00417c89000d00e00088
:103ca00001003200800e780000057800ba407800ec
:103cb0000a0478000100fb0081bf9f0098f507000f
:103cc0008fb897000000e000f8ff3a00d0c2b300c0
:103cd00080cf500003003a00b84078001ec0b30007
:103ce000050037000047eb00b0c2b30080cf5000a2
:103cf00001003a00b840780000c3b30080cf500004
:103d000012003a00b84078000900e00002003200da
:103d1000f08f540058003a0080c7b30080cf5000a5
:103d20000300320080c5b30080cf500003003a008a
:103d3000b8407800090120004f0037000900e0007a
:103d40004d003a00890020004b0037000046eb0090
:103d50000900e00002003a000046eb00a900200044
:103d60006055b8000101fb000200780081bf9f0090
:103d7000f2b79f0060f507008fb897007fb19700fa
:103d80000000e00005003200020078006cf507003a
:103d900091ccb30001424000050037000203b1009e
:103da000e90f51001e003e0004cdb30004c24000e4
:103db0000400fb00890f500019003d000402fb00c5
:103dc000cfa2de006149b9000a00be00f4b79f002f
:103dd00085bf9f00db0207007fb297008fba970074
:103de00004024000858248000800e800840f550066
:103df000858f5d000500360021022000417c89008e
:103e00000004780010c0b300060037009840780026
:103e1000000478000405be001cc0b300d1ff3700c9
:103e20000040eb000c04e000030032000d00e00055
:103e300001003200880ee900e14f50000500320019
:103e40000e04e0000500320060051500e0851d004d
:103e5000020037000085eb008085eb000a00be0001
:103e60004f0778004f06be004f05be004f04be004e
:103e70006f00b100000006001cc0b300b8ff37009f
:103e8000889fbe008a9fbe008c9fbe008005780080
:103e900081047800820678000000eb00407c8900f5
:103ea0000b0678000c0578000a0678003c44780080
:103eb0000800fb001af507000000e000f9ff3a00d7
:103ec000d0c2b300804f54000300320000c0e900ac
:103ed000804f540002003a000a05e8000100370054
:103ee000004478000d017800890078000a0078000d
:103ef00061ff07000900e00007003200990f55003c
:103f000024003a008b0c780022003700e00f5000ac
:103f1000e08f58000f003a00b2c2b300824f540045
:103f200004003a00e00f5000e08f580015003d00fb
:103f300008003700d2c2b300824f540011003a008b
:103f40000200200003002800820f5000838f5800d9
:103f50000a00360020022000407c8900f0ff2f007c
:103f6000f1ff2700d2c2b300824f540005003a008f
:103f7000000020000100280002003700600010004f
:103f8000e08018004f06be004f05be004f04be0083
:103f900000000600998f5500dfff3a00dbff370075
:103fa00001d02200fbfc37000200fa00889fbe000f
:103fb000a0ff9f0001047800380090000068a30073
:103fc00033003a00e200600005003a000003b3004d
:103fd00030049800110498000080eb002e00370098
:103fe000d80490000900e00006003a00120020000a
:103ff000e680570048009000d8f4070019049800a4
:1040000023003700a80090000100e00008003a00fb
:10401000f1f7220021049800010c78002100200013
:1040200051049800110498000030a000300498005a
:1040300018019000a800900048009000c7f4070005
:10404000280090008080eb0011049800aff89700e2
:1040500001487800000ce8002ff89700ea4f500064
:104060000b003a00380090000088a30008003200de
:1040700018019000a800900048009000b7f40700d5
:104080000000eb0010049800a8009000010c7800dc
:10409000aff897000100fb004f04be000080fa005b
:1040a0000000060000c0da0000000600000000006a
:1040b0002800fa00889fbe008a9fbe008c9fbe0029
:1040c00007067800878669000c003b00030478002f
:1040d0008704780008f0a10009f0a100840f5000c7
:1040e000858f5800860f5900890f5c00030033004c
:1040f0000cf0a20001003a000cf0a100ff00070044
:104100006400e1005f003200780147006408e100cc
:10411000610032006c014700748557003200be0018
:104120001201be003a04be001a05be001e03900034
:10413000be0a90008503530006003d000004fd0008
:104140008104fd000205fd008305fd008703ea00f0
:10415000050378000df8a300040032006004140089
:10416000e0841c0060051d00e0851d006022b80091
:104170007d0320000d38e1008006eb000b003900c4
:104180004433dd00f300b2008301730039003700cf
:10419000848272000d027800e10664008b85d100f4
:1041a0000a85d3008984d3000884d3008703e900fb
:1041b000f7ff3b0008004000898048000a014900e1
:1041c0008b81490004003b0060001000e080180073
:1041d00060011900e08119000358a30009003200b2
:1041e0008d82720084827200610260008301d100be
:1041f0000281d3008180d3000080d3000603e80051
:104200001b0037000348a30017003a000600e00037
:10421000170034000603e9000d00a3000000480069
:104220008180480002014900838149000348a300be
:104230000f003a000600e000090034000603e90020
:10424000000040008180480002014900838149004c
:1042500001003a000003eb000348a300f5ff320021
:104260006022b8000200370084827200618266001a
:104270007600070003f0a1000cf0a70003f0a000f7
:10428000b2003700640147006408e10002003a0010
:104290000df8a300aa003a003200be001201be00d1
:1042a000aa003700000000008f1fd100ab010700fb
:1042b0008f87e9000000e00000000600809feb000f
:1042c000a60107008f87e9000000e000000006005b
:1042d0002800fa00889fbe008a9fbe008c9fbe0007
:1042e00003866b00850007006400e1004400320093
:1042f0006408e1004a0032006100e100460032003b
:104300006108e10049003200ec0647006000b80097
:104310003d02be003d03be00f48657006011b800a8
:104320003d04be003d05be007d0320000b003700ac
:104330000000a0008d06e9001300320004024200d4
:1043400085824a0006034b0087834b000000400033
:10435000818048000201490083814900080252001f
:1043600089825a000a035b008b835b00f0ff3b00ed
:104370000802420089824a000a034b008b834b00eb
:104380008d06e900edff3a00848272008682720099
:10439000f707b2008782720001003200150020008a
:1043a0001e0490003e0b900006035400e63fb00050
:1043b0000368a300070032000000a7000500a0006a
:1043c0008301d1000281d3008180d3000080d3001b
:1043d0000603e8008301d1000281d3008180d3006d
:1043e0000080d3000002eb000482d2001700070017
:1043f00003f0a1000cf0a70003f0a0005300370069
:10440000640247006408e1004d0032003400be0041
:104410003401be00f6ff37006108e10048003200b9
:104420006011b8006000b800f1ff370003ff2700fb
:1044300002002000fbff3700801feb004701070050
:104440008f87e9000000e00000000600180020004f
:1044500057002000080453000d003d000600200016
:1044600097fc2f000740e1001e0034008482720098
:10447000610260008301d1000281d3008180d300fa
:104480000080d3000804e800f8ff3a00470020004d
:104490006104600005047400040464000d0032002f
:1044a00061004000e080480060014900e08149006f
:1044b00003b8a500070032000603e8006538e100f4
:1044c00004003a008301d1000281d3008180d3002f
:1044d0000080d300f87f20000830e10003003500a1
:1044e000080378006000b8006011b8004433dd00b4
:1044f000f300b20083017300000006006804470067
:104500000294be000094be00fc0447008694be00e6
:104510008494be0009007800590107000800780063
:104520005701070099007800814f70000b003b0095
:104530000800be00320107004f00b1000300370041
:10454000f3ff2700f2ff2f006110b9004f06be00f5
:104550004f05be004f04be000080fa0000000600b8
:1045600081037800cff407000001be006000b800ae
:104570000478a30013003a006220e10015003e0019
:104580000d0039008301d1000281d3008180d30066
:104590008301d1000281d3008180d3008301d10047
:1045a0000281d3008180d3000538b000c42add0029
:1045b000f300b2008381720007f0a70003f0a000af
:1045c00000000600f3ff2700f2ff2f006110b90082
:1045d000fbff370003ff2700f7ff37001400fa0046
:1045e000889fbe008a9fbe008c9fbe000004be0054
:1045f0000205be00680047000a90be000890be0099
:104600001f0107000070a7000bf0a1000bf8a3002a
:1046100020003a009e0990000e099000fe009000d4
:104620006e0090009e02900034432000848252006d
:10463000c6ff32000a003c00b4fc2f000428e10051
:10464000140034008301d1000281d3008180d300a3
:104650000080d3008502e800faff3a00bbff370074
:10466000b40020000428e10007003c0000004000e6
:104670008180480002014900838149008502e900e8
:10468000faff3a00b1ff37000300280002002000c3
:10469000010037006011b8006000b800abff3700c0
:1046a0006011b8001d0137001400fa00889fbe0099
:1046b0008a9fbe008c9fbe00040678000004be00e6
:1046c0000205be00680047000a90be000890be00c8
:1046d000eb0007006200e1000800be000a01be0016
:1046e000040020000b003a001e029000e43fb100dd
:1046f0006e009000fe0090000e0990009e09900050
:10470000f300b20005fe2300858171000bf0a700c5
:1047100003f0a000040e78008cff3700811f7800a2
:104720000100e00002003d0060001000e080180081
:104730000300e00002003d0060011100e08119006b
:104740007d0007004f00e00002003b006000100009
:10475000e0801800000006002800fa00889fbe00d4
:104760008a9fbe008c9fbe0003866b0063ff07001c
:104770000028a30064003a000128a30067003a0063
:104780000008a30062003a000108a30065003a0097
:104790001e009000be08900081064000ed3fb10071
:1047a000f4805700ee019000111ab8008e099000b5
:1047b000311bb8009e099000311cb800511db80093
:1047c000f485570046000700fe0190003a000700fc
:1047d0008b85e8003e0007008e099000400007002e
:1047e000ee019000340007008b85e80038000700d8
:1047f0008e099000400007009e0990001b18b80029
:10480000890440000a854800fe019000340007003a
:104810008b85e80038000700ee01900030000700ab
:104820008e0990001b18b800890440000a854800d2
:104830000a98a30008003a000402420085824a0058
:1048400006034b0087834b0008044c0089844c000e
:104850000a054d008d06e90084827200850273000e
:104860004c3add0085027200010032001500200084
:10487000443ade001400b2004538de00cb45dd00ce
:104880000b007000c540de00cb4ddd008b8070005a
:104890004549de00cb55dd000b017100c551de003e
:1048a0000d037800e9fe070003f0a1000cf0a7005b
:1048b00003f0a00025ff37001b18b8008502400058
:1048c00006834800e0834b0060044c00070037007b
:1048d0001b18b8000603400087834800faff370022
:1048e0001b18b8008703400008844800e0844c008f
:1048f00060054d00000006001b18b80008044000c9
:1049000089844800faff37000108a3000cff3a0031
:104910005800be005801be00e3ff37000008a300a6
:1049200007ff3a0009047800f9ff37000000000093
:1049300007f0a200defd37003bf407000400be00d4
:1049400000000600020ab900001bb9000200b8000e
:10495000810042008100430000000600889fbe00e5
:104960008a9fbe008c9fbe000404be000605be00e8
:10497000809fbe00829fbe002f00070004067800c3
:104980000800be000a01be002b0007008406780064
:104990004f03be004f02be008d4f76007fb09700e0
:1049a00013003300f0ff2f008b8f6b0006003b00dd
:1049b0000d0666000c00a7000a00370007f0a600ed
:1049c000100020000a003700880f5200898f5a001b
:1049d0008a0f5b008b8f5b00030039001000200002
:1049e00001003e000000200007f0a7000000ea00e0
:1049f0004f06be004f05be004f04be00000006007b
:104a0000e48240001078a3000700320064024000f6
:104a10001178a3003400be001401be00040032006f
:104a20000330a700000006003500be001501be00df
:104a30000330a0000000060005ff2700058261008a
:104a4000070032000428e1000100320024000500c4
:104a50000600070001003a004400050004080500b4
:104a600002000700f9ff3a00140005006f826100a0
:104a7000810270008502710085027200000006004c
:104a8000800078005002be005003be004439de00b2
:104a9000f700b200f37f200003016100090032003b
:104aa0000218e10016003a008501720083017300cc
:104ab000838173000008200015003a0040002000a8
:104ac0001300370085017200830173008381730036
:104ad00005003a0004a8be0006a8be001000200091
:104ae0000b0037000201e9000402420085824a00ff
:104af00006034b0087834b000748a300f9ff3200f1
:104b00000740a00004a8be0006a8be0020002000a8
:104b1000800098009200980000000600889fbe0068
:104b200000827000040271000482710024003200cf
:104b300036432000c50020008383cf000a003900df
:104b40000541b1008283cf00070039000541b10063
:104b50008183cf00040039000541b1008083cf007c
:104b6000010039000541b10085c353006022b8003f
:104b7000120032000a003b00848272006102600071
:104b80008301d1000281d3008180d3000080d30053
:104b90000603e8008743e800f7ff3a000700370004
:104ba00000004000818048000201490083814900e3
:104bb0000603e9008743e900f9ff3a0023fe0700f6
:104bc0004f04be00000006000c00fa00881f7800a9
:104bd00001047800820078000002eb000800e00089
:104be000010032000802e900e4bf9f000001eb0071
:104bf000a2bf9f0090bf9f00b0bf9f00200c20006d
:104c0000c0bf9f00030178006e805700d4f40700f6
:104c10000800e000020032009fb897008048eb00d7
:0c4c20004f0478000080fa00000006003d
:020000040000fa
:104c2c00434f00004e460000494700002e4900004b
:104c3c004e490000206e00006f74000020660000da
:104c4c006f7500006e640000002e00002e2f000017
:104c5c0073720000632f000061700000702f000061
:104c6c0061700000705f0000636f00006e660000f2
:104c7c00696700002e63000000570000726f00008f
:104c8c006e6700002070000061720000616d000012
:104c9c00657400006572000073200000696e0000ee
:104cac00204300004f4e000046490000472e0000f4
:104cbc00494e0000493a00002025000073200000f6
:104ccc00282500006429000000500000524f00000d
:104cdc00424100002e5400005854000000550000c2
:104cec006e610000626c000065200000746f0000b3
:104cfc00206f0000706500006e20000072650000df
:104d0c00776100007264000020700000726f000078
:104d1c0062610000626900006c6900007469000047
:104d2c006573000020660000696c000065200000bf
:104d3c002825000075290000005500006e61000058
:104d4c00626c000065200000746f0000206300009e
:104d5c006c6f000073650000207200006577000026
:104d6c006172000064200000707200006f6200002d
:104d7c0061620000696c00006974000069650000e4
:104d8c0073200000666900006c650000202800009c
:104d9c002575000029000000505400004c4500000f
:104dac00465400002e5400005854000000550000da
:104dbc006e610000626c000065200000746f0000e2
:104dcc00206f0000706500006e200000504900004c
:104ddc00542000007461000067730000206c000018
:104dec006566000074200000666900006c650000b8
:104dfc00202800002575000029000000556e0000d9
:104e0c00616200006c650000207400006f200000df
:104e1c00636c00006f7300006520000050490000b7
:104e2c00542000007461000067730000206c0000c7
:104e3c006566000074200000666900006c65000067
:104e4c0020280000257500002900000050540000a7
:104e5c005249000047480000542e000054580000ee
:104e6c0054000000556e0000616200006c6500008b
:104e7c00207400006f2000006f700000656e000051
:104e8c0020500000495400002074000061670000ad
:104e9c007320000072690000676800007420000035
:104eac00666900006c650000202800002575000074
:104ebc0029000000556e0000616200006c65000066
:104ecc00207400006f200000636c00006f73000002
:104edc00652000005049000054200000746100005f
:104eec00677300002072000069670000687400009e
:104efc0020660000696c0000652000002825000079
:104f0c007529000000500000545400004f50000060
:104f1c002e54000058540000005500006e61000033
:104f2c00626c000065200000746f0000206f0000b0
:104f3c00706500006e2000005049000054200000f5
:104f4c007461000067730000207400006f70000033
:104f5c0020660000696c0000652000002825000018
:104f6c0075290000005500006e610000626c0000a5
:104f7c0065200000746f0000206300006c6f00005f
:104f8c00736500002050000049540000207400009c
:104f9c006167000073200000746f00007020000037
:104fac00666900006c650000202800002575000073
:104fbc002900000050540000424f000054540000df
:104fcc004f4d00002e5400005854000000550000b6
:104fdc006e610000626c000065200000746f0000c0
:104fec00206f0000706500006e200000504900002a
:104ffc005420000074610000677300002062000000
:10500c006f740000746f00006d2000006669000072
:10501c006c650000202800002575000029000000a8
:10502c00556e0000616200006c6500002074000089
:10503c006f200000636c00006f730000652000009f
:10504c005049000054200000746100006773000098
:10505c00206200006f740000746f00006d2000006f
:10506c00666900006c6500002028000025750000b2
:10507c0029000000505400004f4e00004525000050
:10508c00642e00005458000054000000556e0000bf
:10509c00616200006c650000207400006f2000004d
:1050ac006f700000656e0000205000004954000035
:1050bc00207400006167000073200000677200001c
:1050cc006f75000070200000256400002066000051
:1050dc00696c00006520000028250000752900007f
:1050ec00005500006e610000626c0000652000003d
:1050fc00746f0000206300006c6f0000736500008b
:10510c00205000004954000020740000616700002a
:10511c0073200000677200006f75000070200000a3
:10512c002564000020660000696c0000652000000a
:10513c002825000075290000005000005443000091
:10514c004f4c00004f520000412e000054580000fc
:10515c0054000000556e0000616200006c65000098
:10516c00207400006f2000006f700000656e00005e
:10517c0020500000495400002074000061670000ba
:10518c0073200000636f00006c6f00007220000041
:10519c0041200000666900006c65000020280000ba
:1051ac002575000029000000556e000061620000aa
:1051bc006c650000207400006f200000636c000020
:1051cc006f7300006520000050490000542000005f
:1051dc007461000067730000206300006f6c0000b6
:1051ec006f7200002041000020660000696c000016
:1051fc0065200000282500007529000000500000e3
:10520c00544300004f4c00004f520000422e00004f
:10521c005458000054000000556e000061620000fc
:10522c006c650000207400006f2000006f7000009f
:10523c00656e0000205000004954000020740000ee
:10524c006167000073200000636f00006c6f00004a
:10525c007220000042200000666900006c650000ae
:10526c00202800002575000029000000556e000064
:10527c00616200006c650000207400006f2000006b
:10528c00636c00006f730000652000005049000043
:10529c00542000007461000067730000206300005c
:1052ac006f6c00006f72000020420000206600004e
:1052bc00696c00006520000028250000752900009d
:1052cc000050000054440000454e000049450000c9
:1052dc00442e00005458000054000000556e00008d
:1052ec00616200006c650000207400006f200000fb
:1052fc006f700000656e00002050000049540000e3
:10530c0020740000616700007320000064650000d9
:10531c006e6900006564000020660000696c000086
:10532c0065200000282500007529000000550000ac
:10533c006e610000626c000065200000746f00005c
:10534c00206300006c6f00007365000020500000ab
:10535c0049540000207400006167000073200000b5
:10536c00646500006e690000656400002066000042
:10537c00696c0000652000002825000075290000dc
:10538c000050000054410000434300004550000011
:10539c00542e00005458000054000000556e0000bc
:1053ac00616200006c650000207400006f2000003a
:1053bc006f700000656e0000205000004954000022
:1053cc00207400006167000073200000616300001e
:1053dc0063650000707400006564000020660000c6
:1053ec00696c00006520000028250000752900006c
:1053fc00005500006e610000626c0000652000002a
:10540c00746f0000206300006c6f00007365000077
:10541c002050000049540000207400006167000017
:10542c00732000006163000063650000707400006d
:10543c006564000020660000696c000065200000b7
:10544c002825000075290000004300004f4e000085
:10545c0046490000472e0000494e0000490000005c
:10546c006e7500006d00000073630000656e000037
:10547c0061720000696f00000009000053630000b6
:10548c00656e000061720000696f0000206e000004
:10549c00756d000062650000722e00002e2e00005b
:1054ac002072000065610000642e000000580000ae
:1054bc0058580000580000007a6f00006e6500001c
:1054cc00007300006974000065690000640000004e
:1054dc000953000069740000652000004944000075
:1054ec002e2e00002e20000072650000616400006a
:1054fc002e000000776100006b65000075700000e5
:10550c005f6800006f750000720000007469000095
:10551c006d65000000090000546900006d65000015
:10552c0020570000616b00006575000070200000c2
:10553c00686f0000757200002e2e00002e200000f7
:10554c0072650000616400002e00000077610000ad
:10555c006b650000757000005f6d0000696e0000e7
:10556c00757400006500000009540000696d0000ae
:10557c0065200000576100006b650000757000002d
:10558c00206d0000696e000075740000652e00002f
:10559c002e2e00002072000065610000642e0000b9
:1055ac00007300006c650000657000005f6800000f
:1055bc006f7500007200000009540000696d000056
:1055cc0065200000736c0000656500007020000011
:1055dc00686f0000757200002e2e00002e20000057
:1055ec0072650000616400002e000000736c000006
:1055fc0065650000705f00006d6900006e7500004d
:10560c007465000000090000546900006d6500001d
:10561c00207300006c65000065700000206d0000b8
:10562c00696e000075740000652e00002e2e0000bf
:10563c002072000065610000642e00000061000013
